{
  "_format": "hh-sol-artifact-1",
  "contractName": "BatchSwapper",
  "sourceName": "contracts/BatchSwapper.sol",
  "abi": [
    {
      "inputs": [
        {
          "components": [
            {
              "internalType": "address",
              "name": "token",
              "type": "address"
            },
            {
              "internalType": "uint256",
              "name": "amount",
              "type": "uint256"
            }
          ],
          "internalType": "struct IBatchSwapper.TokenIn",
          "name": "tokenIn",
          "type": "tuple"
        },
        {
          "components": [
            {
              "internalType": "address",
              "name": "token",
              "type": "address"
            },
            {
              "internalType": "uint256",
              "name": "millesimals",
              "type": "uint256"
            },
            {
              "internalType": "uint256",
              "name": "amountMin",
              "type": "uint256"
            }
          ],
          "internalType": "struct IBatchSwapper.TokenOut[]",
          "name": "tokensOut",
          "type": "tuple[]"
        },
        {
          "components": [
            {
              "internalType": "address",
              "name": "factory",
              "type": "address"
            },
            {
              "internalType": "bytes32",
              "name": "pairHash",
              "type": "bytes32"
            },
            {
              "internalType": "address",
              "name": "bridgeToken",
              "type": "address"
            },
            {
              "internalType": "address",
              "name": "weth",
              "type": "address"
            },
            {
              "internalType": "uint256",
              "name": "deadline",
              "type": "uint256"
            },
            {
              "internalType": "address",
              "name": "to",
              "type": "address"
            }
          ],
          "internalType": "struct IBatchSwapper.Settings",
          "name": "settings",
          "type": "tuple"
        }
      ],
      "name": "batchSwap",
      "outputs": [
        {
          "internalType": "uint256[]",
          "name": "amountsOut",
          "type": "uint256[]"
        }
      ],
      "stateMutability": "nonpayable",
      "type": "function"
    },
    {
      "inputs": [
        {
          "components": [
            {
              "internalType": "address",
              "name": "token",
              "type": "address"
            },
            {
              "internalType": "uint256",
              "name": "millesimals",
              "type": "uint256"
            },
            {
              "internalType": "uint256",
              "name": "amountMin",
              "type": "uint256"
            }
          ],
          "internalType": "struct IBatchSwapper.TokenOut[]",
          "name": "tokensOut",
          "type": "tuple[]"
        },
        {
          "components": [
            {
              "internalType": "address",
              "name": "factory",
              "type": "address"
            },
            {
              "internalType": "bytes32",
              "name": "pairHash",
              "type": "bytes32"
            },
            {
              "internalType": "address",
              "name": "bridgeToken",
              "type": "address"
            },
            {
              "internalType": "address",
              "name": "weth",
              "type": "address"
            },
            {
              "internalType": "uint256",
              "name": "deadline",
              "type": "uint256"
            },
            {
              "internalType": "address",
              "name": "to",
              "type": "address"
            }
          ],
          "internalType": "struct IBatchSwapper.Settings",
          "name": "settings",
          "type": "tuple"
        }
      ],
      "name": "batchSwapEth",
      "outputs": [
        {
          "internalType": "uint256[]",
          "name": "amountsOut",
          "type": "uint256[]"
        }
      ],
      "stateMutability": "payable",
      "type": "function"
    },
    {
      "inputs": [
        {
          "components": [
            {
              "internalType": "address",
              "name": "token",
              "type": "address"
            },
            {
              "internalType": "uint256",
              "name": "amount",
              "type": "uint256"
            }
          ],
          "internalType": "struct IBatchSwapper.TokenIn",
          "name": "tokenIn",
          "type": "tuple"
        },
        {
          "components": [
            {
              "internalType": "address",
              "name": "token",
              "type": "address"
            },
            {
              "internalType": "uint256",
              "name": "millesimals",
              "type": "uint256"
            },
            {
              "internalType": "uint256",
              "name": "amountMin",
              "type": "uint256"
            }
          ],
          "internalType": "struct IBatchSwapper.TokenOut[]",
          "name": "tokensOut",
          "type": "tuple[]"
        },
        {
          "components": [
            {
              "internalType": "address",
              "name": "factory",
              "type": "address"
            },
            {
              "internalType": "bytes32",
              "name": "pairHash",
              "type": "bytes32"
            },
            {
              "internalType": "address",
              "name": "bridgeToken",
              "type": "address"
            },
            {
              "internalType": "address",
              "name": "weth",
              "type": "address"
            },
            {
              "internalType": "uint256",
              "name": "deadline",
              "type": "uint256"
            },
            {
              "internalType": "address",
              "name": "to",
              "type": "address"
            }
          ],
          "internalType": "struct IBatchSwapper.Settings",
          "name": "settings",
          "type": "tuple"
        }
      ],
      "name": "getAmountsOut",
      "outputs": [
        {
          "internalType": "uint256",
          "name": "bridgeAmount",
          "type": "uint256"
        },
        {
          "internalType": "uint256[]",
          "name": "amountsOut",
          "type": "uint256[]"
        }
      ],
      "stateMutability": "view",
      "type": "function"
    },
    {
      "stateMutability": "payable",
      "type": "receive"
    }
  ],
  "bytecode": "0x608060405234801561001057600080fd5b50612147806100206000396000f3fe6080604052600436106100385760003560e01c80630da3d8c41461004457806357ff85b91461006d578063c90e032b1461009b5761003f565b3661003f57005b600080fd5b6100576100523660046119ac565b6100bb565b6040516100649190611d03565b60405180910390f35b34801561007957600080fd5b5061008d610088366004611aaf565b610454565b60405161006492919061207f565b3480156100a757600080fd5b506100576100b6366004611aaf565b61070d565b6060816080013542811015610105576040517f08c379a00000000000000000000000000000000000000000000000000000000081526004016100fc90611e5d565b60405180910390fd5b6000610141610117602086018661196d565b602086013561012c606088016040890161196d565b61013c6080890160608a0161196d565b610aad565b9050610153608085016060860161196d565b73ffffffffffffffffffffffffffffffffffffffff1663d0e30db0346040518263ffffffff1660e01b81526004016000604051808303818588803b15801561019a57600080fd5b505af11580156101ae573d6000803e3d6000fd5b50505050506101d08460600160208101906101c9919061196d565b8234610b3e565b60008061020d6101e3602088018861196d565b60208801356101f860608a0160408b0161196d565b61020860808b0160608c0161196d565b610c68565b90925090506000610224608088016060890161196d565b73ffffffffffffffffffffffffffffffffffffffff168473ffffffffffffffffffffffffffffffffffffffff16630dfe16816040518163ffffffff1660e01b815260040160206040518083038186803b15801561028057600080fd5b505afa158015610294573d6000803e3d6000fd5b505050506040513d601f19601f820116820180604052508101906102b89190611990565b73ffffffffffffffffffffffffffffffffffffffff161415610383578373ffffffffffffffffffffffffffffffffffffffff1663022c0d9f60006102fd348688610d78565b604080516000815260208101918290527fffffffff0000000000000000000000000000000000000000000000000000000060e086901b1690915290945061034c91908590309060248101611d16565b600060405180830381600087803b15801561036657600080fd5b505af115801561037a573d6000803e3d6000fd5b5050505061042d565b8373ffffffffffffffffffffffffffffffffffffffff1663022c0d9f6103aa348587610d78565b60408051600080825260208201928390527fffffffff0000000000000000000000000000000000000000000000000000000060e086901b169092529194506103fa91859190309060248101611d16565b600060405180830381600087803b15801561041457600080fd5b505af1158015610428573d6000803e3d6000fd5b505050505b610447898983610442368c90038c018c611a1f565b610e46565b9998505050505050505050565b600060606104678382016040850161196d565b73ffffffffffffffffffffffffffffffffffffffff1661048a602088018861196d565b73ffffffffffffffffffffffffffffffffffffffff1614156104b257856020013591506104ff565b6000806104e76104c5602087018761196d565b60208701356104da6060890160408a0161196d565b61020860208d018d61196d565b915091506104fa88602001358284610d78565b935050505b818467ffffffffffffffff8111801561051757600080fd5b50604051908082528060200260200182016040528015610541578160200160208202803683370190505b50915060005b858110156107025760007fffffffffffffffffffffffffffffffffffffffffffffffffffffffffffffffff87018210156105aa576103e888888481811061058a57fe5b9050606002016020013586028161059d57fe5b04905080830392506105ad565b50815b6105bd606087016040880161196d565b73ffffffffffffffffffffffffffffffffffffffff168888848181106105df57fe5b6105f5926020606090920201908101915061196d565b73ffffffffffffffffffffffffffffffffffffffff161415610630578084838151811061061e57fe5b602002602001018181525050506106fa565b6000806106cf61064360208a018a61196d565b60208a013561065860608c0160408d0161196d565b60008e8e8a81811061066657fe5b61067c926020606090920201908101915061196d565b73ffffffffffffffffffffffffffffffffffffffff1614156106ad576106a860808d0160608e0161196d565b610208565b8d8d898181106106b957fe5b610208926020606090920201908101915061196d565b915091506106de838383610d78565b8685815181106106ea57fe5b6020026020010181815250505050505b600101610547565b505094509492505050565b606081608001354281101561074e576040517f08c379a00000000000000000000000000000000000000000000000000000000081526004016100fc90611e5d565b61075e606084016040850161196d565b73ffffffffffffffffffffffffffffffffffffffff16610781602088018861196d565b73ffffffffffffffffffffffffffffffffffffffff1614156107dc576107bc6107b0606085016040860161196d565b3330896020013561158f565b6107d58585602089013561044236889003880188611a1f565b9150610aa4565b60006108106107ee602086018661196d565b6020860135610803606088016040890161196d565b61013c60208c018c61196d565b905061082e610822602089018961196d565b33838a6020013561158f565b600080610863610841602088018861196d565b602088013561085660608a0160408b0161196d565b61020860208e018e61196d565b9092509050600061087760208b018b61196d565b73ffffffffffffffffffffffffffffffffffffffff168473ffffffffffffffffffffffffffffffffffffffff16630dfe16816040518163ffffffff1660e01b815260040160206040518083038186803b1580156108d357600080fd5b505afa1580156108e7573d6000803e3d6000fd5b505050506040513d601f19601f8201168201806040525081019061090b9190611990565b73ffffffffffffffffffffffffffffffffffffffff1614156109da578373ffffffffffffffffffffffffffffffffffffffff1663022c0d9f60006109548d602001358688610d78565b604080516000815260208101918290527fffffffff0000000000000000000000000000000000000000000000000000000060e086901b169091529094506109a391908590309060248101611d16565b600060405180830381600087803b1580156109bd57600080fd5b505af11580156109d1573d6000803e3d6000fd5b50505050610a88565b8373ffffffffffffffffffffffffffffffffffffffff1663022c0d9f610a058c602001358587610d78565b60408051600080825260208201928390527fffffffff0000000000000000000000000000000000000000000000000000000060e086901b16909252919450610a5591859190309060248101611d16565b600060405180830381600087803b158015610a6f57600080fd5b505af1158015610a83573d6000803e3d6000fd5b505050505b610a9d898983610442368c90038c018c611a1f565b9550505050505b50949350505050565b6000806000610abc85856116bc565b91509150868282604051602001610ad4929190611bf3565b6040516020818303038152906040528051906020012087604051602001610afd93929190611c49565b604080517fffffffffffffffffffffffffffffffffffffffffffffffffffffffffffffffe08184030181529190528051602090910120979650505050505050565b600060608473ffffffffffffffffffffffffffffffffffffffff1663a9059cbb8585604051602401610b71929190611cdd565b6040516020818303038152906040529060e01b6020820180517bffffffffffffffffffffffffffffffffffffffffffffffffffffffff8381831617835250505050604051610bbf9190611c2d565b6000604051808303816000865af19150503d8060008114610bfc576040519150601f19603f3d011682016040523d82523d6000602084013e610c01565b606091505b5091509150818015610c2b575080511580610c2b575080806020019051810190610c2b91906119ff565b610c61576040517f08c379a00000000000000000000000000000000000000000000000000000000081526004016100fc90611d5b565b5050505050565b6000806000610c7785856116bc565b509050600080610c8989898989610aad565b73ffffffffffffffffffffffffffffffffffffffff16630902f1ac6040518163ffffffff1660e01b815260040160606040518083038186803b158015610cce57600080fd5b505afa158015610ce2573d6000803e3d6000fd5b505050506040513d601f19601f82011682018060405250810190610d069190611b1b565b506dffffffffffffffffffffffffffff1691506dffffffffffffffffffffffffffff1691508273ffffffffffffffffffffffffffffffffffffffff168773ffffffffffffffffffffffffffffffffffffffff1614610d65578082610d68565b81815b909a909950975050505050505050565b6000808411610db3576040517f08c379a00000000000000000000000000000000000000000000000000000000081526004016100fc90611e00565b600083118015610dc35750600082115b610df9576040517f08c379a00000000000000000000000000000000000000000000000000000000081526004016100fc90611f85565b6000610e07856103e56117bb565b90506000610e1582856117bb565b90506000610e2f83610e29886103e86117bb565b90611812565b9050808281610e3a57fe5b04979650505050505050565b6060828467ffffffffffffffff81118015610e6057600080fd5b50604051908082528060200260200182016040528015610e8a578160200160208202803683370190505b50915060005b858110156115855760007fffffffffffffffffffffffffffffffffffffffffffffffffffffffffffffffff8701821015610ef3576103e8888884818110610ed357fe5b90506060020160200135870281610ee657fe5b0490508083039250610ef6565b50815b846040015173ffffffffffffffffffffffffffffffffffffffff16888884818110610f1d57fe5b610f33926020606090920201908101915061196d565b73ffffffffffffffffffffffffffffffffffffffff161415610fd057610f6285604001518660a0015183610b3e565b878783818110610f6e57fe5b90506060020160400135811015610fb1576040517f08c379a00000000000000000000000000000000000000000000000000000000081526004016100fc90611ef1565b80848381518110610fbe57fe5b6020026020010181815250505061157d565b845160208601516040870151600092839261102e92848e8e8a818110610ff257fe5b611008926020606090920201908101915061196d565b73ffffffffffffffffffffffffffffffffffffffff1614156106ad578a60600151610208565b9150915060006110c8886000015189602001518a60400151600073ffffffffffffffffffffffffffffffffffffffff168f8f8b81811061106a57fe5b611080926020606090920201908101915061196d565b73ffffffffffffffffffffffffffffffffffffffff1614156110a6578b6060015161013c565b8e8e8a8181106110b257fe5b61013c926020606090920201908101915061196d565b905060006110d7858585610d78565b90508b8b878181106110e557fe5b90506060020160400135811015611128576040517f08c379a00000000000000000000000000000000000000000000000000000000081526004016100fc90611ef1565b8488878151811061113557fe5b60200260200101818152505061115089604001518387610b3e565b886040015173ffffffffffffffffffffffffffffffffffffffff168273ffffffffffffffffffffffffffffffffffffffff16630dfe16816040518163ffffffff1660e01b815260040160206040518083038186803b1580156111b157600080fd5b505afa1580156111c5573d6000803e3d6000fd5b505050506040513d601f19601f820116820180604052508101906111e99190611990565b73ffffffffffffffffffffffffffffffffffffffff1614156113a85760008c8c8881811061121357fe5b611229926020606090920201908101915061196d565b73ffffffffffffffffffffffffffffffffffffffff1614611302578173ffffffffffffffffffffffffffffffffffffffff1663022c0d9f6000838c60a00151600067ffffffffffffffff8111801561128057600080fd5b506040519080825280601f01601f1916602001820160405280156112ab576020820181803683370190505b506040518563ffffffff1660e01b81526004016112cb9493929190611d16565b600060405180830381600087803b1580156112e557600080fd5b505af11580156112f9573d6000803e3d6000fd5b505050506113a3565b73ffffffffffffffffffffffffffffffffffffffff821663022c0d9f6000833082805b506040519080825280601f01601f191660200182016040528015611350576020820181803683370190505b506040518563ffffffff1660e01b81526004016113709493929190611d16565b600060405180830381600087803b15801561138a57600080fd5b505af115801561139e573d6000803e3d6000fd5b505050505b6114ba565b60008c8c888181106113b657fe5b6113cc926020606090920201908101915061196d565b73ffffffffffffffffffffffffffffffffffffffff1614611423578173ffffffffffffffffffffffffffffffffffffffff1663022c0d9f8260008c60a00151600067ffffffffffffffff8111801561132557600080fd5b60408051600080825260208201928390527f022c0d9f0000000000000000000000000000000000000000000000000000000090925273ffffffffffffffffffffffffffffffffffffffff84169163022c0d9f91611487918591309060248101611d16565b600060405180830381600087803b1580156114a157600080fd5b505af11580156114b5573d6000803e3d6000fd5b505050505b60008c8c888181106114c857fe5b6114de926020606090920201908101915061196d565b73ffffffffffffffffffffffffffffffffffffffff16141561157757886060015173ffffffffffffffffffffffffffffffffffffffff16632e1a7d4d826040518263ffffffff1660e01b81526004016115379190612076565b600060405180830381600087803b15801561155157600080fd5b505af1158015611565573d6000803e3d6000fd5b505050506115778960a001518261184f565b50505050505b600101610e90565b5050949350505050565b600060608573ffffffffffffffffffffffffffffffffffffffff166323b872dd8686866040516024016115c493929190611cac565b6040516020818303038152906040529060e01b6020820180517bffffffffffffffffffffffffffffffffffffffffffffffffffffffff83818316178352505050506040516116129190611c2d565b6000604051808303816000865af19150503d806000811461164f576040519150601f19603f3d011682016040523d82523d6000602084013e611654565b606091505b509150915081801561167e57508051158061167e57508080602001905181019061167e91906119ff565b6116b4576040517f08c379a00000000000000000000000000000000000000000000000000000000081526004016100fc90611fe2565b505050505050565b6000808273ffffffffffffffffffffffffffffffffffffffff168473ffffffffffffffffffffffffffffffffffffffff161415611725576040517f08c379a00000000000000000000000000000000000000000000000000000000081526004016100fc90611e94565b8273ffffffffffffffffffffffffffffffffffffffff168473ffffffffffffffffffffffffffffffffffffffff161061175f578284611762565b83835b909250905073ffffffffffffffffffffffffffffffffffffffff82166117b4576040517f08c379a00000000000000000000000000000000000000000000000000000000081526004016100fc9061203f565b9250929050565b60008115806117d6575050808202828282816117d357fe5b04145b61180c576040517f08c379a00000000000000000000000000000000000000000000000000000000081526004016100fc90611d92565b92915050565b8082018281101561180c576040517f08c379a00000000000000000000000000000000000000000000000000000000081526004016100fc90611dc9565b6040805160008082526020820190925273ffffffffffffffffffffffffffffffffffffffff84169083906040516118869190611c2d565b60006040518083038185875af1925050503d80600081146118c3576040519150601f19603f3d011682016040523d82523d6000602084013e6118c8565b606091505b5050905080611903576040517f08c379a00000000000000000000000000000000000000000000000000000000081526004016100fc90611f28565b505050565b803561180c816120d0565b60008083601f840112611924578182fd5b50813567ffffffffffffffff81111561193b578182fd5b6020830191508360206060830285010111156117b457600080fd5b600060c08284031215611967578081fd5b50919050565b60006020828403121561197e578081fd5b8135611989816120d0565b9392505050565b6000602082840312156119a1578081fd5b8151611989816120d0565b600080600060e084860312156119c0578182fd5b833567ffffffffffffffff8111156119d6578283fd5b6119e286828701611913565b90945092506119f690508560208601611956565b90509250925092565b600060208284031215611a10578081fd5b81518015158114611989578182fd5b600060c08284031215611a30578081fd5b60405160c0810181811067ffffffffffffffff82111715611a4f578283fd5b604052611a5c8484611908565b815260208301356020820152611a758460408501611908565b6040820152611a878460608501611908565b606082015260808301356080820152611aa38460a08501611908565b60a08201529392505050565b600080600080848603610120811215611ac6578182fd5b6040811215611ad3578182fd5b50849350604085013567ffffffffffffffff811115611af0578182fd5b611afc87828801611913565b9094509250611b1090508660608701611956565b905092959194509250565b600080600060608486031215611b2f578283fd5b8351611b3a816120f5565b6020850151909350611b4b816120f5565b604085015190925063ffffffff81168114611b64578182fd5b809150509250925092565b6000815180845260208085019450808401835b83811015611b9e57815187529582019590820190600101611b82565b509495945050505050565b60008151808452611bc18160208601602086016120a0565b601f017fffffffffffffffffffffffffffffffffffffffffffffffffffffffffffffffe0169290920160200192915050565b7fffffffffffffffffffffffffffffffffffffffff000000000000000000000000606093841b811682529190921b16601482015260280190565b60008251611c3f8184602087016120a0565b9190910192915050565b7fff00000000000000000000000000000000000000000000000000000000000000815260609390931b7fffffffffffffffffffffffffffffffffffffffff0000000000000000000000001660018401526015830191909152603582015260550190565b73ffffffffffffffffffffffffffffffffffffffff9384168152919092166020820152604081019190915260600190565b73ffffffffffffffffffffffffffffffffffffffff929092168252602082015260400190565b6000602082526119896020830184611b6f565b600085825284602083015273ffffffffffffffffffffffffffffffffffffffff8416604083015260806060830152611d516080830184611ba9565b9695505050505050565b6020808252601f908201527f5472616e7366657248656c7065723a205452414e534645525f4641494c454400604082015260600190565b60208082526014908201527f64732d6d6174682d6d756c2d6f766572666c6f77000000000000000000000000604082015260600190565b60208082526014908201527f64732d6d6174682d6164642d6f766572666c6f77000000000000000000000000604082015260600190565b60208082526029908201527f4d6174657269614c6962726172793a20494e53554646494349454e545f494e5060408201527f55545f414d4f554e540000000000000000000000000000000000000000000000606082015260800190565b60208082526010908201527f4d6174657269613a204578706972656400000000000000000000000000000000604082015260600190565b60208082526023908201527f4d6174657269614c6962726172793a204944454e544943414c5f41444452455360408201527f5345530000000000000000000000000000000000000000000000000000000000606082015260800190565b6020808252601a908201527f494e53554646494349454e545f4f55545055545f414d4f554e54000000000000604082015260600190565b60208082526023908201527f5472616e7366657248656c7065723a204554485f5452414e534645525f46414960408201527f4c45440000000000000000000000000000000000000000000000000000000000606082015260800190565b60208082526026908201527f4d6174657269614c6962726172793a20494e53554646494349454e545f4c495160408201527f5549444954590000000000000000000000000000000000000000000000000000606082015260800190565b60208082526024908201527f5472616e7366657248656c7065723a205452414e534645525f46524f4d5f464160408201527f494c454400000000000000000000000000000000000000000000000000000000606082015260800190565b6020808252601c908201527f4d6174657269614c6962726172793a205a45524f5f4144445245535300000000604082015260600190565b90815260200190565b6000838252604060208301526120986040830184611b6f565b949350505050565b60005b838110156120bb5781810151838201526020016120a3565b838111156120ca576000848401525b50505050565b73ffffffffffffffffffffffffffffffffffffffff811681146120f257600080fd5b50565b6dffffffffffffffffffffffffffff811681146120f257600080fdfea264697066735822122080af4a39b101d41caad1346084cfa38be86bc6363761cf4c17dbd26d81ccd32d64736f6c634300060c0033",
  "linkReferences": {},
  "deployedLinkReferences": {}
}